:020000040000FA
:100000000C9476000C949E000C949E000C949E0020
:100010000C949E000C949E000C949E000C949E00E8
:100020000C949E000C949E000C949E000C949E00D8
:100030000C949E000C949E000C949E000C949E00C8
:100040000C94750A0C949E000C94E50A0C94BF0A5B
:100050000C949E000C949E000C949E000C949E00A8
:100060000C949E000C949E00000000080002010009
:10007000000304070000000000000000CDCCCC3DD0
:100080000AD7233C17B7D13877CC2B329595E62485
:100090001FB14F0A000020410000C84200401C462A
:1000A00020BCBE4CCA1B0E5AAEC59D740000000099
:1000B000250028002B0000000000240027002A0053
:1000C00004040404040404040202020202020303FE
:1000D0000303030301020408102040800102040806
:1000E0001020010204081020250B6F1011241FBEE0
:1000F000CFEFD8E0DEBFCDBF23E0A8E3B2E001C080
:100100001D92AF32B207E1F712E0A0E0B1E0E8E003
:10011000FAE202C005900D92A833B107D9F710E0BA
:10012000C5E7D0E004C02197FE010E94FF12C4374A
:10013000D107C9F70E94AE0B0C94F7140C94000081
:1001400090E0FC01EC52FF4F249180549F4FFC0142
:100150008491882399F090E0880F991FFC01EA545C
:10016000FF4FA591B491FC01E455FF4F8591949107
:100170008FB7F894EC91E22BEC938FBF0895CF9357
:10018000DF93EC016091EA027091EB026115710559
:1001900079F0FB01808191819093EB028093EA02D8
:1001A000E881F9810280F381E02DCE010995EACF43
:1001B000DF91CF910895FF920F931F93CF93DF9319
:1001C0008C01F12C6091FC027091FD028091FE0285
:1001D000F816C8F484E0F89EE0011124C60FD71F7A
:1001E0006A817B816115710541F0D801ED91FC9127
:1001F0000280F381E02DC80109951B821A821882C2
:100200001982F394DFCF1092FE028FEF80930003E8
:10021000B2E06C3E7B0789F0D801ED91FC91028041
:10022000F381E02DC80109958CEE92E09093FD02D8
:100230008093FC0284E08093FF02DF91CF911F91B5
:100240000F91FF90089590E0FC01E859FF4F249131
:10025000FC01EC52FF4F3491FC01E054FF4FE4915C
:10026000EE23C9F0222339F0233001F1A8F4213024
:1002700019F1223029F1F0E0EE0FFF1FE455FF4F96
:10028000A591B4918FB7F894EC91611126C0309587
:100290003E233C938FBF08952730A9F02830C9F042
:1002A000243049F7809180008F7D03C080918000C9
:1002B0008F7780938000DFCF84B58F7784BDDBCFCD
:1002C00084B58F7DFBCF8091B0008F778093B00095
:1002D000D2CF8091B0008F7DF9CF3E2BDACF3FB7E0
:1002E000F8948091420290914302A0914402B0910F
:1002F000450226B5A89B05C02F3F19F00196A11D08
:10030000B11D3FBFBA2FA92F982F8827BC01CD015F
:10031000620F711D811D911D42E0660F771F881FBE
:10032000991F4A95D1F708958F929F92AF92BF92ED
:10033000CF92DF92EF92FF924B015C010E946F011E
:100340006B017C010E946F016C197D098E099F0968
:10035000683E734081059105A8F321E0821A910857
:10036000A108B10888EEC80E83E0D81EE11CF11C7C
:1003700081149104A104B10429F7FF90EF90DF905C
:10038000CF90BF90AF909F908F900895AF92BF9203
:10039000CF92DF92EF92FF920F931F93CF93DF9351
:1003A0006C017B018B01040F151FEB015E01AE1880
:1003B000BF08C017D10759F06991D601ED91FC91A2
:1003C0000190F081E02DC6010995892B79F7C501CF
:1003D000DF91CF911F910F91FF90EF90DF90CF9021
:1003E000BF90AF900895FC01538D448D252F30E0D0
:1003F000842F90E0821B930B541710F0CF96089532
:1004000001970895FC01918D828D981761F0A28D5E
:10041000AE0FBF2FB11D5D968C91928D9F5F9F7324
:10042000928F90E008958FEF9FEF08952FB7F89483
:100430008091460290914702A0914802B0914902F2
:100440002FBF8093520290935302A0935402B09313
:1004500055028AE492E00E94020297FF26C02FB75D
:10046000F8948091460290914702A0914802B09181
:1004700049022FBF409152025091530260915402A1
:1004800070915502841B950BA60BB70B40914E0241
:1004900050914F026091500270915102841795075C
:1004A000A607B707B0F28FEF9FEF0895FC01918D7B
:1004B000828D981731F0828DE80FF11D858D90E0C7
:1004C00008958FEF9FEF0895FC01918D228D892F64
:1004D00090E0805C9F4F821B91098F73992708954C
:1004E0008AE492E00E94640221E0892B09F420E072
:1004F000822F089580E090E0892B29F00E947002FD
:1005000081110C9400000895FC01A48DA80FB92F4F
:10051000B11DA35ABF4F2C91848D90E001968F732B
:100520009927848FA689B7892C93A089B1898C914A
:10053000837080648C93938D848D981306C0028899
:10054000F389E02D80818F7D80830895EF92FF9263
:100550000F931F93CF93DF93EC0181E0888F9B8DE6
:100560008C8D98131AC0E889F989808185FF15C0A0
:100570009FB7F894EE89FF896083E889F9898081C3
:100580008370806480839FBF81E090E0DF91CF9192
:100590001F910F91FF90EF900895F62E0B8D10E0B4
:1005A0000F5F1F4F0F731127E02E8C8D8E110CC023
:1005B0000FB607FCFACFE889F989808185FFF5CF6E
:1005C000CE010E948402F1CFEB8DEC0FFD2FF11DC7
:1005D000E35AFF4FF0829FB7F8940B8FEA89FB89AB
:1005E00080818062CFCFCF93DF93EC01888D882309
:1005F000B9F0AA89BB89E889F9898C9185FD03C086
:10060000808186FD0DC00FB607FCF7CF8C9185FF6A
:10061000F2CF808185FFEDCFCE010E948402E9CF29
:10062000DF91CF9108956F3FA9F0E62FE295EF702B
:1006300044E0E49F90011124DC01ED91FC91E20F74
:10064000F31F6F7082819381B6E06B9F800D911DC7
:100650001124089590E080E00895DC0152969C9169
:100660005297915084E0989F900111245096ED91FB
:10067000FC91E20FF31F228133812115310579F0BE
:1006800041818081481758F481E0840F818386E09E
:10069000489F200D311D11242115310521F460E002
:1006A00070E08FEF0895B901892F8295807F840FC4
:1006B0000895CF93DF9310920601CAE1D1E08881BB
:1006C000229660E00E94230181E0C832D807B9F782
:1006D00061E089E00E94230161E08AE00E94230139
:1006E00061E08BE00E94230161E08CE0DF91CF911B
:1006F0000C942301AF92BF92CF92DF92EF92FF92C0
:100700000F931F93CF93DF93EC018B018C8180FFBC
:100710002CC0A881B981FB018381948130E020E065
:10072000009719F1A817B90709F041C0F8014081F5
:10073000518112969C911297915012969C93129708
:10074000911113C08D919C9111972115310561F183
:10075000F90191838083FA0180819181FC012281DA
:100760003381BD01CA01F90109958C81807631F18F
:10077000209721F1F8805801F5E1AF0EB11C8FEF01
:10078000F816D1F06F2DC5010E9413036C01FC0116
:10079000E580B8010E947A03F801818DF60180831B
:1007A000F801F18EFE2CEBCF94838383D4CF9C0190
:1007B000FC0180819181B4CFF882F9821C82DF91A3
:1007C000CF911F910F91FF90EF90DF90CF90BF904E
:1007D000AF900895CF93DF93EC0160E08C810E948D
:1007E000230160E088810E94230160E08A81DF911B
:1007F000CF910C942301CF93DF93EC0161E08C81C6
:100800000E94230160E088810E94230160E08A81C8
:10081000DF91CF910C942301CF93DF93EC0161E042
:100820008A810E94230160E088810E94230160E0A8
:100830008C81DF91CF910C942301CF93DF93EC0156
:1008400061E088810E94230160E08A810E94230187
:1008500060E08C81DF91CF910C942301FC01019029
:100860000020E9F73197AF01481B590BBC018AE41E
:1008700092E00C94C601CF93DF930E942E04EC010A
:100880008CE491E00E942E048C0F9D1FDF91CF918C
:1008900008950F931F93CF93DF93EC018881998183
:1008A000009759F02A813B812617370730F081E005
:1008B000DF91CF911F910F9108958B016F5F7F4F53
:1008C0000E942A14009759F0998388831B830A8316
:1008D0002C813D81232B59F7FC011082E8CF80E069
:1008E000E7CFCF92DF92EF92FF920F931F93CF93B8
:1008F000DF938C01DC019296ED91FC91E80FF91FDA
:1009000012826C01B2E0CB0ED11CC114D10449F1AA
:10091000F60101900020E9F73197EC19FD09F1F09B
:10092000DC01ED90FC90D7011496CD91DC91CE0FB7
:10093000DF1FBE01C7010E944904882391F0F7011F
:100940002081318184819581B601820F931F0E949D
:10095000F014D7011596DC93CE931497F80113A2E7
:1009600012A2D80192968D919C91DF91CF911F9107
:100970000F91FF90EF90DF90CF9008951F93CF934A
:10098000DF93EC01162F8AA19BA101968097B8F402
:100990008AA19BA19C012F5F3F4F3BA32AA38C0FF1
:1009A0009D1FFC01128321E030E08CA19DA1820FEC
:1009B000931F9DA38CA3DF91CF911F910895CE012A
:1009C0000E947104892B21F330E020E0EECFBF922A
:1009D000CF92DF92EF92FF920F931F93CF93DF930B
:1009E000EC016A018B017B01E40EF51EE016F106B5
:1009F000D1F0F801B1908F018AA19BA10196809757
:100A000060F48AA19BA19C012F5F3F4F3BA32AA3C7
:100A10008C0F9D1FFC01B282E9CFCE010E947104B0
:100A2000892B79F3E3CF4CA15DA14C0D5D1D5DA336
:100A30004CA3DF91CF911F910F91FF90EF90DF902A
:100A4000CF90BF9008958F929F92AF92BF92CF9216
:100A5000DF92EF92FF920F931F93CF93DF93CDB767
:100A6000DEB766970FB6F894DEBF0FBECDBF6C0140
:100A70008E01095E1F4F78018AE0882E912CA12CEF
:100A8000B12CCB01BA01A50194010E94DD12942F73
:100A9000852F605DF80162938F01A901692F782F7E
:100AA000411551056105710561F7A7014E1B5F0BEB
:100AB000BF01C6010E94E70466960FB6F894DEBF38
:100AC0000FBECDBFDF91CF911F910F91FF90EF909F
:100AD000DF90CF90BF90AF909F908F900895FB01D3
:100AE00001900020E9F73197AF01461B570B0C949A
:100AF000E704CF92DF92EF92FF920F931F93CF9371
:100B0000DF938C016B017A0162E20E94BE04E60170
:100B1000EC0CFD1CEC16FD0699F06991EFE4F1E098
:100B2000D480DD20C9F0329683816813F9CF6CE55B
:100B3000C8010E94BE046D2DC8010E94BE04EACF08
:100B400062E2C801DF91CF911F910F91FF90EF906A
:100B5000DF90CF900C94BE046111EECF62E671E09D
:100B6000C8010E946F05D6CF2F923F924F925F929D
:100B70006F927F928F929F92AF92BF92CF92DF92AD
:100B8000EF92FF920F931F93CF93DF93CDB7DEB712
:100B90006B970FB6F894DEBF0FBECDBF7C018B0103
:100BA000DC0114968C9114978A3009F4A0C2F0F4F9
:100BB000843009F479C268F4833009F490C269E69C
:100BC00071E0C8010E946F05D80194968D919C91A7
:100BD00029C2853009F47BC2863089F78C916EE694
:100BE00071E0811155C063E771E052C08E3009F4A5
:100BF00040C0C8F48C3019F7CD90DD90ED90FC909A
:100C0000B701A601F7FE0BC06DE2C8010E94BE0449
:100C100044275527BA014C195D096E097F09C8019F
:100C20000E942305FCC1803209F415C2803439F6D4
:100C30006BE5C8010E94BE04D701FC90BFEFFB1614
:100C400009F4E9C1F80186A197A16F2D45960E948C
:100C500013037C01B8010E94B405D7011596FC90DE
:100C6000BFEFFB1609F4D7C16CE2C8010E94BE04B5
:100C7000E5CFF70180809180A280B380A501940127
:100C8000C501B4010E94B910882331F069E671E012
:100C9000C8010E946F05C3C120E030E0A901C50171
:100CA000B4010E94B910882371F0A5019401C50117
:100CB000B4010E9415129B01AC01C501B4010E9450
:100CC000B910882319F320E030E0A901C501B4016F
:100CD0000E94B91087FF08C06DE2C8010E94BE04DF
:100CE000B7FAB094B7F8B09420E836E948E15BE48D
:100CF000C501B4010E94B01287FD83C074E1C72E04
:100D0000D12CE0E2EE2EF12C312C212CF601EC5608
:100D1000FF4F6591759185919491A50194010E9471
:100D2000B91018167CF0F601E458FF4F2591359163
:100D300045915491C501B4010E941F114B015C0102
:100D40002E0C3F1CF594E794F4E0CF1AD1082CEF59
:100D5000C2162FEFD206D1F63FEF3F8B20E030E0F6
:100D6000A901C501B4010E94B01218160CF051C0BF
:100D70002CEA35EC47E257E3C501B4010E94B910F3
:100D800018160CF446C0AF89B4E0AB02C0011124C0
:100D9000D12CC12CFC01E458FF4F2F019C012C5693
:100DA0003F4F39013F893F3F09F433C0F201EC0D59
:100DB000FD1D659175918591949120E030E040E2B0
:100DC00051E40E941F11A50194010E94B01218164F
:100DD0007CF4F301EC0DFD1D259135914591549165
:100DE000C501B4010E941F114B015C012E183F0880
:100DF000F594E7948F8981508F8B94E0C91AD108BC
:100E0000D1CF50E2E52EF12C85E08F8B312C212CB7
:100E1000A5CFC501B4010E9481126B017C012B0199
:100E20003C0180E492E4AFE0B0E0888F998FAA8F14
:100E3000BB8F96E09F8BAAE04A16510461047104AF
:100E4000E0F0688D798D8A8D9B8D2AE030E040E05E
:100E500050E00E94DD12288F398F4A8F5B8FBF8947
:100E6000B150BF8BC301B2012AE030E040E050E056
:100E70000E94DD1229013A01DECFC701B6010E94AE
:100E8000BE109B01AC01C501B4010E9414124B01BC
:100E90005C01688D798D8A8D9B8D0E94BE109B01AF
:100EA000AC01C501B4010E941F112B013C010E943D
:100EB00081124B015C010E94BE109B01AC01C30179
:100EC000B2010E9414129B01AC010E9415120E94F3
:100ED0008112860E971EA81EB91E888D998DAA8D27
:100EE000BB8D88169906AA06BB06C0F09FEFC91AEB
:100EF000D90AE90AF90A2114310439F1AAE0CA161B
:100F0000D104E104F10408F1BFEF2B1A3B0A812C54
:100F1000912C5401C12CD12C7601C3942AE0422E8D
:100F2000512C612C712CC501B401A30192010E94C6
:100F3000DD12672B682B692B61F4EF891E164CF4C8
:100F400049015A01E150EF8BEECF812C912C5401D5
:100F5000E5CFB701A601C8010E942305FF89FF2341
:100F600091F16E0121E1C20ED11CF88F76019AE059
:100F7000492E512C612C712C388D3150388F3F3FC8
:100F800069F0C501B401A30192010E94DD12605D08
:100F9000D6016E936D0149015A01EECFBF898B2FA7
:100FA00090E0BC0160957095F701E81BF90B319753
:100FB0008EE2808344275527461B570B6E0D7F1DFD
:100FC000C8010E94E7042114310449F165E6C80113
:100FD0000E94BE04710137FE07C06DE2C8010E9485
:100FE000BE04F194E194F108FE0177969F018AE036
:100FF000C82ED12CC701B6010E94B512805D829324
:101000007B01672BB9F7A9014E1B5F0BBF01C8011C
:101010000E94E70404C06DE5C8010E94BE04F80107
:1010200084A195A16B960FB6F894DEBF0FBECDBF1D
:10103000DF91CF911F910F91FF90EF90DF90CF90B4
:10104000BF90AF909F908F907F906F905F904F90E8
:101050003F902F9008956BE7C8010E94BE04D7010E
:10106000FC90EE24E394BB24B394BFEFFB16D1F0C5
:10107000F80186A197A16F2D45960E9413036C017C
:10108000B8010E94B405D6011596FC90BFEFFB167F
:1010900039F06AE3E11001C06CE2C8010E94BE04AD
:1010A000EB24E3CF6DE7B8CF6D917C9150E040E049
:1010B0006115710541F0FB0101900020E9F73197BE
:1010C000AF01461B570BC8010E947905A8CFED91CF
:1010D000FC91438150E0BF016C5F7F4FF4CFED91F5
:1010E000FC91438150E0BF016C5F7F4F90CF4D91E9
:1010F0005D916D917C9193CDCB01BA010C942A1432
:10110000CF93DF93EC0188819981009711F00E94C1
:10111000A113198218821D821C821B821A82DF9100
:10112000CF910895CF93DF93EC0170E060E00E94CF
:101130004904811105C0CE01DF91CF910C94800844
:101140001D821C8261E671E088819981DF91CF91D7
:101150000C94F014FC0180819181009711F00C94A3
:10116000A1130895CB010C94A113BF92CF92DF92EB
:10117000EF92FF920F931F93CF93DF93EC01198DA2
:101180001F3F81F0612F45960E941303FC0180816F
:10119000898F309709F477C014828FEF8583BF0160
:1011A000812F76C06C0135E0C30ED11CE880F98038
:1011B0008F89882341F0C6010E942D03E62FF72F67
:1011C000182F309749F71F89988D191324C01031B3
:1011D00009F459C0110F6D897E89D701ED91FC91F9
:1011E000B4E01B9FA0011124C616D70609F044C025
:1011F0000190F081E02DBA01C7010995009709F42B
:1012000042C020E1F601DC0101900D922A95E1F740
:101210009E8B8D8B188F0D891E898F8921E0280F59
:101220002F8BE4E08E9FC0011124080F191F90E15D
:10123000B92E203111F48FE0B82EF6E0BF9EB00138
:101240001124D701ED91FC910190F081E02DC701AF
:101250000995F80193838283892B09F4B12CD80175
:10126000BC9211961C92012B71F0C6010E942D03B5
:10127000E62FF72F182F8DCF0480F581E02DC701C1
:101280000995009729F681E08A8360E070E08FEF8E
:10129000DF91CF911F910F91FF90EF90DF90CF9052
:1012A000BF9008957F928F929F92AF92BF92CF92FC
:1012B000DF92EF92FF920F931F93CF93DF93EC0196
:1012C0006115710589F4B12CA12CC501DF91CF9175
:1012D0001F910F91FF90EF90DF90CF90BF90AF9054
:1012E0009F908F907F9008958C8181112AC080E219
:1012F0008C83209741F38FEF888389837A018B0158
:101300006A0185E1C80ED11C6881C6010E941303E1
:10131000FC01BB24BA94892B09F0B580AA24A394BC
:1013200099249394309709F451C0AA2099F18481AB
:10133000843069F08530C9F190E080E0F0E0E0E0D1
:1013400015C0803209F0BFCF2097C1F6BCCF019005
:10135000F081E02D90E080E0309741F0DF010D90CA
:101360000020E9F7CD0101978E1B9F0BD8010D904E
:101370000020E9F71197A01BB10BA817B90751F48A
:10138000D8018E0F9F1F8E179F07C1F031912D91AD
:101390003217C9F3A9246B2DC6010E941303FC0167
:1013A000892B09F4BFCFB580BDCF0190F081E02D2E
:1013B000838190E03496DACF78822AC06B2DC60103
:1013C0000E9413035C01892B09F07FCFC7010E94A3
:1013D000B508782E4B01672B09F475CFC7010E9421
:1013E000B508F82E962FA92EB72EA114B10409F432
:1013F0006ACF84E0F401848311830083F5826981DC
:101400006F3FD1F2C6010E941303DC0115967C9256
:10141000F9825BCFCF92DF92EF92FF920F931F93EF
:10142000CF93DF938C016B01DC01ED90FC90119761
:10143000C7014A96B1F012966D917C91A7010E9466
:101440005209EC01009769F0F601C080D180B70124
:101450000E947A03C114D10421F084E08C83D982E4
:10146000C882D801ED91FC9180E0309719F082811B
:1014700091E08927DF91CF911F910F91FF90EF901D
:10148000DF90CF900895EF92FF920F931F93CF9329
:10149000DF93FC01E080F180C7014A9641F480E0CF
:1014A000DF91CF911F910F91FF90EF9008958B01E5
:1014B00062817381A7010E945209EC01009779F3C0
:1014C000F80100811181B7010E947A038CE08C83BE
:1014D000012E000C220B330B088319832A833B83D4
:1014E00081E0DECFCB010C9405131F920F920FB653
:1014F0000F9211242F933F938F939F93AF93BF939A
:101500008091460290914702A0914802B091490211
:101510003091410223E0230F2D3758F50196A11D8C
:10152000B11D209341028093460290934702A093FD
:101530004802B09349028091420290914302A091E7
:101540004402B09145020196A11DB11D8093420253
:1015500090934302A0934402B0934502BF91AF9190
:101560009F918F913F912F910F900FBE0F901F90E1
:10157000189526E8230F0296A11DB11DD2CF1F9208
:101580000F920FB60F9211242F933F934F935F93B7
:101590006F937F938F939F93AF93BF93EF93FF933B
:1015A0008AE492E00E948402FF91EF91BF91AF9193
:1015B0009F918F917F916F915F914F913F912F916B
:1015C0000F900FBE0F901F9018951F920F920FB69D
:1015D0000F9211242F938F939F93EF93FF93E0919A
:1015E0005A02F0915B028081E0916002F091610209
:1015F00082FD1BC09081809163028F5F8F73209169
:101600006402821741F0E0916302F0E0E65BFD4F77
:10161000958F80936302FF91EF919F918F912F910E
:101620000F900FBE0F901F9018958081F4CFCF932D
:10163000DF93EC018C810E94A0008A810E94A000AF
:101640008881DF91CF910C94A000CF93DF93EAE4DF
:10165000F2E01382128288EE93E0A0E0B0E084838F
:101660009583A683B7838EE391E09183808385EC95
:1016700090E09587848784EC90E09787868780EC5C
:1016800090E0918B808B81EC90E0938B828B82EC4D
:1016900090E0958B848B86EC90E0978B868B118EF7
:1016A000128E138E148EE9E1F3E08EE090E09183C8
:1016B00080838FE090E09383828380E190E0958344
:1016C00084832EE130E037832683C3E0D0E0D187E6
:1016D000C0878FE190E09387828735872487D787FB
:1016E000C687918B808BCF010E94170BE7E0F3E058
:1016F00081E190E09183808382E190E09383828313
:1017000083E190E0958384832BE130E03783268367
:10171000D187C08782E290E09387828735872487CC
:10172000D787C687918B808BCF010E94170BE7EE7E
:10173000F2E088E091E09183808312821482138228
:101740008CEE92E0968B858B178A84E0808F8FEFEA
:10175000818F168E878FDF91CF910895CF93DF937E
:10176000CDB7DEB7C55CD1090FB6F894DEBF0FBEAA
:10177000CDBF789484B5826084BD84B5816084BD1A
:1017800085B5826085BD85B5816085BD80916E001F
:10179000816080936E001092810080918100826050
:1017A000809381008091810081608093810080918D
:1017B00080008160809380008091B100846080937C
:1017C000B1008091B00081608093B00080917A0078
:1017D000846080937A0080917A00826080937A009E
:1017E00080917A00816080937A0080917A0080688D
:1017F00080937A001092C100E0915A02F0915B024E
:1018000082E08083E0915602F09157021082E091CD
:101810005802F09159028FEC808310926202E0919D
:101820005E02F0915F0286E08083E0915C02F091BD
:101830005D02808180618083E0915C02F0915D02B5
:10184000808188608083E0915C02F0915D028081FC
:1018500080688083E0915C02F0915D0280818F7DE1
:10186000808348E2C42E41E0D42E0AE111E0D80181
:10187000FC900E5F1F4F8F2D0E94A00060E08F2D07
:101880000E942301C016D10691F73AE3C32E31E03E
:10189000D32E02E311E0F801F0800E5F1F4F8F2D71
:1018A0000E94A00061E08F2D0E942301C016D10686
:1018B00091F72FB7F8948091460290914702A0913A
:1018C0004802B09149022FBF80933D0290933E029F
:1018D000A0933F02B09340028E0107541F4F27EEA2
:1018E000822E22E0922E9E01275F3F4FCD53DF4F85
:1018F00039832883C35CD0408FB7F8944090460268
:101900005090470260904802709049028FBF8091CA
:101910000701882309F492C180913D0290913E0213
:10192000A0913F02B0914002A3019201281B390B04
:101930004A0B5B0BDA01C901883E9340A105B10552
:1019400008F47CC18091E7029091E8020E94DB00DC
:101950001092E9028091E7029091E8020E94BF0094
:10196000109205039A8289824AE851E05C834B8396
:101970006BE372E0CE0101960E94430A9A8289824B
:1019800083E991E09C838B8369E372E0CE01019649
:101990000E94430A809104019091050181309105D4
:1019A00009F417C1029709F017C18DE791E09A82F7
:1019B0008982ACE9B1E0BC83AB83CF53DF4F99831D
:1019C0008883C15CD040BE016F537F4FCE0101962A
:1019D0000E940A0A809102019091030181309105D1
:1019E00009F4FDC0029709F0FDC089E791E09A82F1
:1019F000898223EA31E03C832B83C154DF4F9983F2
:101A00008883CF5BD040BE0161547F4FCE010196E9
:101A10000E940A0AF8011182108213821282158232
:101A20001482C8010E949208CB56DF4F19830883A5
:101A3000C559D040C954DF4F19821882C75BD040C6
:101A4000C8010E94800884E2FE01EB56FF4FDE01D0
:101A5000AF58BF4F01900D928A95E1F784E2FE01E5
:101A6000EF58FF4FDE01A35BBF4F01900D928A95A7
:101A7000E1F784E2FE01E35BFF4FDE0199960190FE
:101A80000D928A95E1F784E2FE01B996DE01119686
:101A900001900D928A95E1F71EA21DA2CE018996B2
:101AA0000E94710498A68FA2CE01835B9F4F0E9473
:101AB0007104BE016F5F7F4F81E093E00E94B40527
:101AC000CE0101960E947104CE018F589F4F0E9453
:101AD0007104CE018B569F4F0E947104B12CA12C32
:101AE000D8011496ED90FC906501AE14BF0408F087
:101AF00084C0B0E2AB0EB11CC6014F968E159F0597
:101B00000CF47501EC14FD0428F09E2D8F2D760148
:101B1000C92ED82E1A8219821C821B821E821D8217
:101B2000CE0101960E949208F80124803580E214CB
:101B3000F304B8F5C214D30408F41601D801ED91EA
:101B4000FC91E20DF31DB081CB53DF4FB883C55C30
:101B5000D0401082F801C080D180CE0CDF1CC114AF
:101B6000D10479F0F60101900020E9F731977F0167
:101B7000EC18FD08B701CE0101960E9449048111BD
:101B800034C0CE0101960E948008D8018D919C91AD
:101B9000280E391ECB53DF4F2881C55CD040F101A0
:101BA00020834D815E8169817A818AE492E00E947E
:101BB000C601CE0101960E94AA086AE08AE492E07A
:101BC0000E94A6026AE070E080E090E00E9494012A
:101BD00087CF89E791E0EBCE83E891E0E8CE83E818
:101BE00091E005CF8DE791E002CFFE82ED82B60154
:101BF00089819A810E94F014C8CF8AEA91E00E94FC
:101C00002E04C8010E94AA0840923D0250923E0252
:101C100060923F027092400280913B0290913C02A0
:101C2000019790933C0280933B02809139029091FE
:101C30003A02019790933A02809339028AE492E043
:101C40000E946402181619060CF075C01A821982D7
:101C50001C821B821E821D82CE0101960E94920868
:101C60000E94160297FD1FC08A309105E1F089A7F6
:101C70001AA6ED80FE803FEFE31AF30AB701CE010A
:101C800001960E944904882359F329813A818D8164
:101C90009E81BE01675D7F4F820F931F0E94F014EB
:101CA000FE82ED82DDCF89819A81009789F00E94C2
:101CB0007D106330710509F42BC174F46130710536
:101CC00071F16230710509F419C187E292E02DC00B
:101CD00060E070E0CB01EDCF6430710509F468C1BC
:101CE0006530710591F7109207010E9459038091A8
:101CF000000190910101019709F096C189E193E0FB
:101D00000E94FB0387E093E00E941D0482E090E0C4
:101D1000909301018093000188E092E006C0109248
:101D20000701109238028FEA91E00E943B04CE0135
:101D300001960E94AA08809138028823E1F089E187
:101D400093E00E940C0464EF71E080E090E00E9458
:101D5000940189E193E00E94EA0387E093E00E9406
:101D60000C0464EF71E080E090E00E94940187E051
:101D700093E00E94EA0380913B0290913C022AE0AA
:101D800030E0B9010E94C9127A8369839C838B83F6
:101D90008091390290913A02B9010E94C9127E8362
:101DA0006D8398878F8380910601882309F459C039
:101DB000AE014F5F5F4F3A0192E3C92E91E0D92EF9
:101DC00061E089E00E94230161E08AE00E94230132
:101DD00061E08BE00E94230161E08CE00E9423011E
:101DE000D301ED91FD913D01E85DFE4F40808AE118
:101DF000A82E81E0B82EF12CE12C512CF501808128
:101E0000F2E0AF0EB11CB2010E2C02C075956795C1
:101E10000A94E2F761700E9423012FEFE21AF20A9E
:101E200037E0E316F10451F7D601FC90B2E0CB0E97
:101E3000D11C60E08F2D0E94230165E070E080E0FE
:101E400090E00E94940161E08F2D0E942301CD5308
:101E5000DF4FE881F981C35CD0406E167F0609F040
:101E6000AFCF80913B0290913C0297FF1AC08091C6
:101E70000401909105018130910509F0E0C089E1EC
:101E800093E00E941D0482E090E09093050180930E
:101E9000040180911F039091200390933C02809352
:101EA0003B028091390290913A0297FF1AC08091CB
:101EB0000201909103018130910509F0E8C087E0AB
:101EC00093E00E94FB0382E090E0909303018093F3
:101ED0000201809111039091120390933A02809332
:101EE000390280E090E0892B09F406CD0E9470024F
:101EF000882309F4F4CC0E940000F1CC0E9459031D
:101F00001092070181E08093380281EC91E00DCFBF
:101F100021E0209307011092380281E090E0909335
:101F20000101809300012093060120912503309147
:101F300026033093200320931F0320912703309121
:101F40002803309322032093210320912903309109
:101F50002A03309324032093230320911303309109
:101F6000140330930E0320930D0320911503309139
:101F700016033093100320930F0320911703309121
:101F8000180330931203209311039093050180935B
:101F90000401909303018093020110923C0210927D
:101FA0003B0210923A021092390287ED91E0BDCEC9
:101FB00080911F03909120034E969093200380936D
:101FC0001F0380912703909128039093220380930D
:101FD000210380912303909124034E969093240330
:101FE0008093230380910D0390910E034E9690935E
:101FF0000E0380930D038091150390911603909327
:10200000100380930F0380911103909112034E9659
:10201000909312038093110381E080930701109243
:1020200038028EEE91E081CE89E193E00E941D049A
:1020300087E093E00E94FB0381E090E069CE82306C
:10204000910579F489E193E00E940C0483E090E02B
:1020500090930501809304018091210390912203C4
:102060001CCF039709F01DCF89E193E00E94FB0389
:10207000809123039091240390933C0280933B0230
:1020800081E090E090930501809304010ACF8230B3
:10209000910579F487E093E00E941D0483E090E0CD
:1020A000909303018093020180910D0390910E03A0
:1020B00014CF039709F015CF87E093E00E940C043A
:1020C00080910F039091100390933A02809339020C
:1020D00081E090E0909303018093020102CFCF93BF
:1020E000DF93C7EED2E0888199810E94BF0088818A
:1020F0009981DF91CF910C94DB001F93FC0199270C
:102100008827BC01E89411911032E9F3193010F0DE
:102110001E30C8F31B3251F01D3249F4689406C0DA
:102120000E94A410610F711D811D911D119110530A
:102130001A30B0F33EF490958095709561957F4F7D
:102140008F4F9F4F1F910895592F482F372F262FBC
:10215000660F771F881F991F660F771F881F991FAB
:10216000620F731F841F951F660F771F881F991FAB
:1021700008950E94FB1008F481E00895E89409C0D6
:1021800097FB3EF490958095709561957F4F8F4FAA
:102190009F4F9923A9F0F92F96E9BB279395F695C0
:1021A000879577956795B795F111F8CFFAF4BB0F3E
:1021B00011F460FF1BC06F5F7F4F8F4F9F4F16C0A2
:1021C000882311F096E911C0772321F09EE8872F2C
:1021D000762F05C0662371F096E8862F70E060E0E8
:1021E0002AF09A95660F771F881FDAF7880F969561
:1021F000879597F90895990F0008550FAA0BE0E805
:10220000FEEF16161706E807F907C0F012161306B8
:10221000E407F50798F0621B730B840B950B39F4F8
:102220000A2661F0232B242B252B21F408950A265E
:1022300009F4A140A6958FEF811D811D08950E948C
:1022400032110C94A3110E94951138F00E949C1138
:1022500020F0952311F00C948C110C949211112400
:102260000C94D7110E94B41170F3959FC1F3950F90
:1022700050E0551F629FF001729FBB27F00DB11D0A
:10228000639FAA27F00DB11DAA1F649F6627B00D9A
:10229000A11D661F829F2227B00DA11D621F739F83
:1022A000B00DA11D621F839FA00D611D221F749F91
:1022B0003327A00D611D231F849F600D211D822FD8
:1022C000762F6A2F11249F5750409AF0F1F08823FF
:1022D0004AF0EE0FFF1FBB1F661F771F881F91502C
:1022E0005040A9F79E3F510580F00C948C110C943E
:1022F000D7115F3FE4F3983ED4F3869577956795C1
:10230000B795F795E7959F5FC1F7FE2B880F911D55
:102310009695879597F9089597F99F6780E870E0FB
:1023200060E008959FEF80EC089500240A9416164B
:10233000170618060906089500240A9412161306B3
:10234000140605060895092E0394000C11F4882341
:1023500052F0BB0F40F4BF2B11F460FF04C06F5F5D
:102360007F4F8F4F9F4F089557FD9058440F551F33
:1023700059F05F3F71F04795880F97FB991F61F007
:102380009F3F79F087950895121613061406551F7E
:10239000F2CF4695F1DF08C0161617061806991FEA
:1023A000F1CF86957105610508940895E894BB27DF
:1023B00066277727CB0197F908952F923F924F9286
:1023C0005F926F927F928F929F92AF92BF92CF92C5
:1023D000DF92EF92FF920F931F93CF93DF93CDB7CE
:1023E000DEB7CA1BDB0B0FB6F894DEBF0FBECDBF46
:1023F00009942A88398848885F846E847D848C8417
:102400009B84AA84B984C884DF80EE80FD800C811F
:102410001B81AA81B981CE0FD11D0FB6F894DEBF02
:102420000FBECDBFED0108955058BB27AA270E94CB
:102430002C120C94A3110E94951138F00E949C114B
:1024400020F039F49F3F19F426F40C9492110EF405
:10245000E095E7FB0C948C11E92F0E94B41158F31E
:10246000BA17620773078407950720F079F4A6F579
:102470000C94D6110EF4E0950B2EBA2FA02D0B0163
:10248000B90190010C01CA01A0011124FF27591BB9
:1024900099F0593F50F4503E68F11A16F040A22FBF
:1024A000232F342F4427585FF3CF46953795279530
:1024B000A795F0405395C9F77EF41F16BA0B620B2F
:1024C000730B840BBAF09150A1F0FF0FBB1F661F76
:1024D000771F881FC2F70EC0BA0F621F731F841FB9
:1024E00048F4879577956795B795F7959E3F08F0DF
:1024F000B0CF9395880F08F09927EE0F97958795A1
:1025000008950E94BC1188F09F5798F0B92F992721
:10251000B751B0F0E1F0660F771F881F991F1AF0CE
:10252000BA95C9F714C0B13091F00E94D611B1E04C
:1025300008950C94D611672F782F8827B85F39F04B
:10254000B93FCCF3869577956795B395D9F73EF467
:1025500090958095709561957F4F8F4F9F4F08950F
:102560000E94FB1008F48FEF0895AA1BBB1B51E1DA
:1025700007C0AA1FBB1FA617B70710F0A61BB70BF3
:10258000881F991F5A95A9F780959095BC01CD0198
:10259000089597FB072E16F4009407D077FD09D015
:1025A0000E94B51207FC05D03EF4909581959F4F8F
:1025B0000895709561957F4F0895A1E21A2EAA1B88
:1025C000BB1BFD010DC0AA1FBB1FEE1FFF1FA217E3
:1025D000B307E407F50720F0A21BB30BE40BF50BE0
:1025E000661F771F881F991F1A9469F76095709569
:1025F000809590959B01AC01BD01CF010895EE0F30
:10260000FF1F0590F491E02D09940F931F93CF9332
:10261000DF938230910510F482E090E0E0912D0389
:10262000F0912E0330E020E0B0E0A0E0309799F484
:102630002115310509F44AC0281B390B2430310516
:10264000D8F58A819B816115710589F1FB0193831E
:102650008283FE0111C0408151810281138148179C
:102660005907E0F04817590799F4109761F012964E
:102670000C93129713961C933296CF01DF91CF9152
:102680001F910F91089500932D0310932E03F4CF03
:102690002115310551F04217530738F0A901DB012C
:1026A0009A01BD01DF01F801C1CFEF01F9CF90938D
:1026B0002E0380932D03CDCFFE01E20FF31F8193F4
:1026C00091932250310939832883D7CF20912B034E
:1026D00030912C03232B41F420910C0130910D01FA
:1026E00030932C0320932B0320910A0130910B018E
:1026F0002115310541F42DB73EB740910E0150919F
:102700000F01241B350BE0912B03F0912C03E217F2
:10271000F307A0F42E1B3F0B2817390778F0AC0104
:102720004E5F5F4F2417350748F04E0F5F1F5093E1
:102730002C0340932B03819391939FCFF0E0E0E033
:102740009CCFCF93DF930097E9F0FC01329713827F
:102750001282A0912D03B0912E03ED0130E020E014
:102760001097A1F420813181820F931F20912B03B8
:1027700030912C032817390709F061C0F0932C031E
:10278000E0932B03DF91CF910895EA01CE17DF0785
:10279000E8F54A815B819E0141155105B1F7E901D8
:1027A000FB83EA8349915991C40FD51FEC17FD07AC
:1027B00061F4808191810296840F951FE9019983CC
:1027C0008883828193819B838A83F0E0E0E0129684
:1027D0008D919C9113970097B9F52D913C9111978C
:1027E000CD010296820F931F20912B0330912C0371
:1027F0002817390739F6309751F510922E031092A9
:102800002D03B0932C03A0932B03BCCFD383C2839F
:1028100040815181840F951FC817D90761F44E5F1D
:102820005F4F88819981480F591F518340838A8166
:102830009B81938382832115310509F0B0CFF093FA
:102840002E03E0932D039ECFFD01DC01C0CF138248
:102850001282D7CFB0E0A0E0E0E3F4E10C94DF1106
:102860008C01009751F4CB010E9405138C01C80123
:10287000CDB7DEB7E0E10C94FB11FC01E60FF71FCA
:102880009C0122503109E217F30708F49DC0D901D9
:10289000CD91DC911197C617D70798F0C530D105B7
:1028A00030F3CE0104978617970708F3C61BD70BA2
:1028B0002297C193D1936D937C93CF010E94A11372
:1028C000D6CF5B01AC1ABD0A4C018C0E9D1EA091A7
:1028D0002D03B0912E03512C412CF12CE12C10979B
:1028E00031F580912B0390912C038815990509F0FF
:1028F0005CC04616570608F058C080910A019091B6
:102900000B01009741F48DB79EB740910E01509195
:102910000F01841B950BE817F90708F055C0F093D9
:102920002C03E0932B03F90171836083A0CF8D9179
:102930009C91119712966C90129713967C90139716
:10294000A815B90559F56C0142E0C40ED11CCA1492
:10295000DB0420F1AC014A195B09DA0112961597E4
:1029600080F06282738251834083D9016D937C939E
:10297000E114F10471F0D7011396FC93EE931297D2
:1029800076CF22968C0F9D1FF90191838083F301EE
:10299000EFCFF0932E03E0932D0369CF481659062D
:1029A00008F42C017D01D3019ACFCB010E940513BD
:1029B0007C01009749F0AE01B8010E94E714C801FC
:1029C0000E94A113870153CF10E000E050CFFB011C
:1029D000DC0102C001900D9241505040D8F708959B
:1029E000FB01DC0101900D920020E1F7089510E059
:1029F000C5E7D0E004C0FE010E94FF122196C63751
:102A0000D107C9F7F894FFCF0100010001000101CF
:102A1000140100002F03800000000000720AB208B9
:102A20007C080200030004000500060007000800FF
:102A30003F065B4F666D7D077F6F09000A000B0044
:102A40000C0000000000A602C601F301F3026402BC
:102A5000020256020D0A002F2F272722225C5C62F9
:102A600008660C6E0A720D7409005C7530303030E7
:102A7000006E756C6C00747275650066616C7365D0
:102A80000072656400677265656E0079656C6C6FD5
:102A90007700636F756E7465723100636F756E7465
:102AA000657232006C6967687431006C69676874BC
:102AB0003200454E440A00436F756E74696E67209C
:102AC00073746F707065642E004E69676874206D52
:102AD0006F6465206163746976617465642E004E6D
:102AE0006F726D616C206D6F6465206163746976CF
:102AF000617465642E005065616B20686F7572208B
:102B00006D6F6465206163746976617465642E001D
:102B10004C696768742073776974636865642074AE
:102B20006F206D616E75616C206D6F64652E00495C
:102B30006E76616C696420636F6D6D616E642E00EA
:107E0000112484B714BE81FFF0D085E080938100F7
:107E100082E08093C00088E18093C10086E0809377
:107E2000C20080E18093C4008EE0C9D0259A86E02C
:107E300020E33CEF91E0309385002093840096BBD3
:107E4000B09BFECF1D9AA8958150A9F7CC24DD24C4
:107E500088248394B5E0AB2EA1E19A2EF3E0BF2EE7
:107E6000A2D0813461F49FD0082FAFD0023811F036
:107E7000013811F484E001C083E08DD089C08234E0
:107E800011F484E103C0853419F485E0A6D080C0E4
:107E9000853579F488D0E82EFF2485D0082F10E0AE
:107EA000102F00270E291F29000F111F8ED06801E7
:107EB0006FC0863521F484E090D080E0DECF843638
:107EC00009F040C070D06FD0082F6DD080E0C81688
:107ED00080E7D80618F4F601B7BEE895C0E0D1E017
:107EE00062D089930C17E1F7F0E0CF16F0E7DF06D8
:107EF00018F0F601B7BEE89568D007B600FCFDCFD4
:107F0000A601A0E0B1E02C9130E011968C91119780
:107F100090E0982F8827822B932B1296FA010C0160
:107F200087BEE89511244E5F5F4FF1E0A038BF0790
:107F300051F7F601A7BEE89507B600FCFDCF97BE46
:107F4000E89526C08437B1F42ED02DD0F82E2BD052
:107F50003CD0F601EF2C8F010F5F1F4F84911BD097
:107F6000EA94F801C1F70894C11CD11CFA94CF0C13
:107F7000D11C0EC0853739F428D08EE10CD085E9AC
:107F80000AD08FE07ACF813511F488E018D01DD067
:107F900080E101D065CF982F8091C00085FFFCCF94
:107FA0009093C60008958091C00087FFFCCF809118
:107FB000C00084FD01C0A8958091C6000895E0E648
:107FC000F0E098E1908380830895EDDF803219F02E
:107FD00088E0F5DFFFCF84E1DECF1F93182FE3DFCA
:107FE0001150E9F7F2DF1F91089580E0E8DFEE27F6
:047FF000FF270994CA
:027FFE00040479
:00000001FF
