:100000000C945D000C9485000C9485000C94850084
:100010000C9485000C9485000C9485000C9485004C
:100020000C9485000C9485000C9485000C9485003C
:100030000C9485000C9485000C9485000C9485002C
:100040000C949A030C9485000C940A040C94E40319
:100050000C9485000C9485000C9485000C9485000C
:100060000C9485000C94850000000008000201003B
:100070000003040700000000000000000000000072
:10008000250028002B0000000000240027002A0083
:10009000040404040404040402020202020203032E
:1000A0000303030301020408102040800102040836
:1000B00010200102040810204A0411241FBECFEFB3
:1000C000D8E0DEBFCDBF22E0A8E1B2E001C01D92C2
:1000D000AF3EB207E1F712E0A0E0B1E0E0EAFAE1FA
:1000E00002C005900D92A831B107D9F710E0CDE517
:1000F000D0E004C02197FE010E94B508CC35D1079D
:10010000C9F70E94BE040C944E0D0C94000090E0C0
:10011000FC01EC55FF4F249180579F4FFC018491C7
:10012000882399F090E0880F991FFC01EA57FF4F50
:10013000A591B491FC01E458FF4F859194918FB73C
:10014000F894EC91E22BEC938FBF089590E0FC01C2
:10015000E859FF4F2491FC01EC55FF4F3491FC010D
:10016000E057FF4FE491EE23C9F0222339F023300A
:1001700001F1A8F4213019F1223029F1F0E0EE0F5D
:10018000FF1FE458FF4FA591B4918FB7F894EC91FD
:10019000611126C030953E233C938FBF08952730D0
:1001A000A9F02830C9F0243049F7809180008F7D74
:1001B00003C0809180008F7780938000DFCF84B56B
:1001C0008F7784BDDBCF84B58F7DFBCF8091B0006E
:1001D0008F778093B000D2CF8091B0008F7DF9CF20
:1001E0003E2BDACF3FB7F894809122029091230200
:1001F000A0912402B091250226B5A89B05C02F3FEF
:1002000019F00196A11DB11D3FBFBA2FA92F982F3C
:100210008827BC01CD01620F711D811D911D42E037
:10022000660F771F881F991F4A95D1F708958F92FF
:100230009F92AF92BF92CF92DF92EF92FF924B01CB
:100240005C010E94F2006B017C010E94F2006C19BB
:100250007D098E099F09683E734081059105A8F3C9
:1002600021E0821A9108A108B10888EEC80E83E047
:10027000D81EE11CF11C81149104A104B10429F7DA
:10028000FF90EF90DF90CF90BF90AF909F908F90B6
:100290000895AF92BF92CF92DF92EF92FF920F93A9
:1002A0001F93CF93DF936C017B018B01040F151F0C
:1002B000EB015E01AE18BF08C017D10759F0699174
:1002C000D601ED91FC910190F081E02DC6010995D8
:1002D000892B79F7C501DF91CF911F910F91FF9085
:1002E000EF90DF90CF90BF90AF900895FC01538DB9
:1002F000448D252F30E0842F90E0821B930B541700
:1003000010F0CF96089501970895FC01918D828D8C
:10031000981761F0A28DAE0FBF2FB11D5D968C9125
:10032000928D9F5F9F73928F90E008958FEF9FEF64
:1003300008952FB7F8948091260290912702A091FA
:100340002802B09129022FBF80933202909333028A
:10035000A0933402B09335028AE292E00E948501B4
:1003600097FF26C02FB7F89480912602909127021C
:10037000A0912802B09129022FBF409132025091E2
:1003800033026091340270913502841B950BA60BE9
:10039000B70B40912E0250912F0260913002709164
:1003A000310284179507A607B707B0F28FEF9FEFCA
:1003B0000895FC01918D828D981731F0828DE80FA0
:1003C000F11D858D90E008958FEF9FEF0895FC015A
:1003D000918D228D892F90E0805C9F4F821B910927
:1003E0008F73992708958AE292E00E94E70121E045
:1003F000892B09F420E0822F089580E090E0892B7A
:1004000029F00E94F30181110C9400000895FC0171
:10041000A48DA80FB92FB11DA35ABF4F2C91848D65
:1004200090E001968F739927848FA689B7892C93C2
:10043000A089B1898C91837080648C93938D848D15
:10044000981306C00288F389E02D80818F7D808318
:100450000895EF92FF920F931F93CF93DF93EC01D8
:1004600081E0888F9B8D8C8D98131AC0E889F9895B
:10047000808185FF15C09FB7F894EE89FF8960835E
:10048000E889F98980818370806480839FBF81E0DF
:1004900090E0DF91CF911F910F91FF90EF90089521
:1004A000F62E0B8D10E00F5F1F4F0F731127E02EFC
:1004B0008C8D8E110CC00FB607FCFACFE889F98934
:1004C000808185FFF5CFCE010E940702F1CFEB8D31
:1004D000EC0FFD2FF11DE35AFF4FF0829FB7F89408
:1004E0000B8FEA89FB8980818062CFCFCF93DF9326
:1004F000EC01888D8823B9F0AA89BB89E889F9893C
:100500008C9185FD03C0808186FD0DC00FB607FC70
:10051000F7CF8C9185FFF2CF808185FFEDCFCE01A3
:100520000E940702E9CFDF91CF910895CF93DF9327
:1005300010920601CEE0D1E08881229660E00E9410
:10054000A60081E0CC31D807B9F761E089E00E94CC
:10055000A60061E08AE00E94A60061E08BE00E94B4
:10056000A60061E08CE0DF91CF910C94A600CF93C0
:10057000DF93EC0160E08C810E94A60060E088813E
:100580000E94A60060E08A81DF91CF910C94A600C2
:10059000CF93DF93EC0161E08C810E94A60060E0C4
:1005A00088810E94A60060E08A81DF91CF910C943F
:1005B000A600CF93DF93EC0161E08A810E94A60040
:1005C00060E088810E94A60060E08C81DF91CF917D
:1005D0000C94A600CF93DF93EC0161E088810E9428
:1005E000A60060E08A810E94A60060E08C81DF9115
:1005F000CF910C94A600CF93DF93FC0101900020D3
:10060000E9F73197AF01481B590BBC018AE292E030
:100610000E944901EC0142E050E060E471E08AE2AE
:1006200092E00E9449018C0F9D1FDF91CF910895A8
:100630000F931F93CF93DF93EC01888199810097EB
:1006400059F02A813B812617370730F081E0DF918E
:10065000CF911F910F9108958B016F5F7F4F0E9483
:10066000E009009759F0998388831B830A832C81C2
:100670003D81232B59F7FC011082E8CF80E0E7CFC2
:100680000F931F93CF93DF93CDB7DEB7DA950FB6F5
:10069000F894DEBF0FBECDBF80910201909103019F
:1006A00023E431E08130910531F02EE431E002970E
:1006B00011F42AE431E08091040190910501813028
:1006C000910591F1029799F183E491E03F932F9383
:1006D0009F938F9380911A028F93809119028F9329
:1006E00080911C028F9380911B028F9384E591E08F
:1006F0009F938F938E010F5F1F4F1F930F930E9445
:10070000AD0AC8010E94FB020FB6F894DEBF0FBE0F
:10071000CDBFD3950FB6F894DEBF0FBECDBFDF912E
:10072000CF911F910F9108958AE491E0CFCF8EE48D
:1007300091E0CCCF1F920F920FB60F9211242F93FE
:100740003F938F939F93AF93BF9380912602909195
:100750002702A0912802B09129023091210223E0C2
:10076000230F2D3758F50196A11DB11D20932102AD
:100770008093260290932702A0932802B093290227
:100780008091220290912302A0912402B09125022F
:100790000196A11DB11D8093220290932302A09384
:1007A0002402B0932502BF91AF919F918F913F9109
:1007B0002F910F900FBE0F901F90189526E8230FD2
:1007C0000296A11DB11DD2CF1F920F920FB60F92AC
:1007D00011242F933F934F935F936F937F938F9346
:1007E0009F93AF93BF93EF93FF938AE292E00E94AF
:1007F0000702FF91EF91BF91AF919F918F917F91F0
:100800006F915F914F913F912F910F900FBE0F907D
:100810001F9018951F920F920FB60F9211242F93CD
:100820008F939F93EF93FF93E0913A02F0913B02F5
:100830008081E0914002F091410282FD1BC09081D5
:10084000809143028F5F8F7320914402821741F0A1
:10085000E0914302F0E0E65DFD4F958F8093430207
:10086000FF91EF919F918F912F910F900FBE0F905D
:100870001F9018958081F4CFCF93DF93EC018C818A
:100880000E9487008A810E9487008881DF91CF9132
:100890000C948700CF93DF93EAE2F2E01382128296
:1008A00088EE93E0A0E0B0E084839583A683B783CD
:1008B00082E391E09183808385EC90E09587848743
:1008C00084EC90E09787868780EC90E0918B808B1A
:1008D00081EC90E0938B828B82EC90E0958B848B03
:1008E00086EC90E0978B868B118E128E138E148E71
:1008F000E9EDF2E08EE090E0918380838FE090E07C
:100900009383828380E190E0958384832EE130E0BD
:1009100037832683C3E0D0E0D187C0878FE190E0A2
:100920009387828735872487D787C687918B808B6B
:10093000CF010E943C04E7ECF2E081E190E091837A
:10094000808382E190E09383828383E190E09583CA
:1009500084832BE130E037832683D187C08782E20E
:1009600090E09387828735872487D787C687918BC6
:10097000808BCF01DF91CF910C943C04CF93DF9318
:10098000CDB7DEB72E970FB6F894DEBF0FBECDBF42
:10099000789484B5826084BD84B5816084BD85B55A
:1009A000826085BD85B5816085BD80916E00816066
:1009B00080936E001092810080918100826080930C
:1009C000810080918100816080938100809180000E
:1009D0008160809380008091B10084608093B10039
:1009E0008091B00081608093B00080917A00846033
:1009F00080937A0080917A00826080937A0080915F
:100A00007A00816080937A0080917A008068809378
:100A10007A001092C100E0913A02F0913B0282E02C
:100A20008083E0913602F09137021082E091380223
:100A3000F09139028FEC808310924202E0913E02E5
:100A4000F0913F0286E08083E0913C02F0913D020C
:100A5000808180618083E0913C02F0913D02808141
:100A600088608083E0913C02F0913D028081806843
:100A70008083E0913C02F0913D0280818F7D8083F4
:100A80000EE011E0D801FC900E5F1F4F8F2D0E94E9
:100A9000870060E08F2D0E94A600B1E00C311B079B
:100AA00089F74EE2C42E41E0D42E06E211E0F801AF
:100AB000F0800E5F1F4F8F2D0E94870061E08F2D09
:100AC0000E94A600C016D10691F72FB7F894809126
:100AD000260290912702A0912802B09129022FBFEF
:100AE00080931D0290931E02A0931F02B0932002D8
:100AF0003E01F9E06F0E711C01E010E032E0C32E00
:100B0000D12C8FB7F8948090260290902702A09065
:100B10002802B09029028FBF80910701882389F1B4
:100B200080911D0290911E02A0911F02B09120029F
:100B3000A5019401281B390B4A0B5B0BDA01C90193
:100B4000883E9340A105B105E0F00E9440038092E9
:100B50001D0290921E02A0921F02B092200280916C
:100B60001B0290911C02019790931C0280931B0220
:100B70008091190290911A02019790931A02809322
:100B800019028AE292E00E94E701181619060CF099
:100B90008DC01A8219821C821B821E821D8270E007
:100BA00060E0CE0101960E94180329813A818111EB
:100BB0002DC02115310519F0C9010E9457091A826B
:100BC00019821E821D821C821B820E94990197FD40
:100BD00025C08A30910511F189871A86ED80FE8043
:100BE0004FEFE41AF40AB701CE0101960E941803F0
:100BF000882359F329813A818D819E81B301820F27
:100C0000931F0E94A60AFE82ED82DFCF1E821D8204
:100C100062E471E0C9010E94A60AD7CF89819A8156
:100C2000009789F00E941A086330710509F423C106
:100C300074F46130710561F16230710509F411C11C
:100C400086E092E02BC060E070E0CB01EDCF643035
:100C5000710509F45AC16530710591F710920701C9
:100C60000E9496028091000190910101019709F084
:100C700088C189ED92E00E94C80287EC92E00E9450
:100C8000EA02D0920101C092000187EE91E006C015
:100C900010920701109218028EE891E00E94FB0268
:100CA00089819A81009711F00E945709809118025A
:100CB0008823E1F089ED92E00E94D90264EF71E0AF
:100CC00080E090E00E94170189ED92E00E94B70257
:100CD00087EC92E00E94D90264EF71E080E090E03E
:100CE0000E94170187EC92E00E94B70240901B021D
:100CF00050901C02C2016AE070E00E948D087A8365
:100D000069839C838B832090190230901A02C10161
:100D10006AE070E00E948D087E836D8398878F83E0
:100D200080910601882309F45BC0DE011196BC871F
:100D3000AB8726E2A22E21E0B22E61E089E00E947C
:100D4000A60061E08AE00E94A60061E08BE00E94BC
:100D5000A60061E08CE00E94A600AB85BC85ED9109
:100D6000FD91BC87AB87E45EFE4F80819EE0892EBB
:100D700091E0992EF12CE12CE82FF0E0FE87ED8731
:100D8000D4018C91B2E08B0E911C6D857E850E2C6A
:100D900002C0759567950A94E2F761700E94A600FB
:100DA000EFEFEE1AFE0AF7E0EF16F10449F7D5016E
:100DB000FC90B2E0AB0EB11C60E08F2D0E94A6004B
:100DC00065E070E080E090E00E94170161E08F2D07
:100DD0000E94A600EB85FC85E615F70509F0ADCF6E
:100DE00057FE18C080910401909105018130910552
:100DF00009F0D4C089ED92E00E94EA02D092050188
:100E0000C09204018091DF029091E00290931C0255
:100E100080931B0237FE18C080910201909103015C
:100E20008130910509F0E0C087EC92E00E94C80291
:100E3000D0920301C09202018091D1029091D2021E
:100E400090931A028093190280E090E0892B09F4B4
:100E500058CE0E94F301882309F453CE0E9400006B
:100E600050CE0E9496021092070151E05093180252
:100E700080EA91E013CF81E080930701809306011F
:100E8000109218028091E5029091E6029093E002A0
:100E90008093DF028091E7029091E8029093E20252
:100EA0008093E1028091E9029091EA029093E4023A
:100EB0008093E3028091D3029091D4029093CE026A
:100EC0008093CD028091D5029091D6029093D0026A
:100ED0008093CF028091D7029091D8029093D20252
:100EE0008093D10210930501009304011093030134
:100EF0000093020110921C0210921B0210921A021F
:100F00001092190286EB91E0C9CE8091DF02909198
:100F1000E0024E969093E0028093DF028091E70218
:100F20009091E8029093E2028093E1028091E302C3
:100F30009091E4024E969093E4028093E3028091B4
:100F4000CD029091CE024E969093CE028093CD0228
:100F50008091D5029091D6029093D0028093CF02D7
:100F60008091D1029091D2024E969093D2028093BA
:100F7000D10291E090930701109218028DEC91E05C
:100F80008DCE89ED92E00E94EA0287EC92E00E9409
:100F9000C802109301010093000177CE82309105C1
:100FA00079F489ED92E00E94D90223E030E0309399
:100FB0000501209304018091E1029091E20226CF85
:100FC000039709F027CF89ED92E00E94C802809133
:100FD000E3029091E40290931C0280931B02109311
:100FE00005010093040116CF8230910579F487EC56
:100FF00092E00E94EA0243E050E0509303014093E4
:1010000002018091CD029091CE021ACF039709F090
:101010001BCF87EC92E00E94D9028091CF02909181
:10102000D00290931A028093190210930301009347
:1010300002010ACF1F93FC0199278827BC01E8947D
:1010400011911032E9F3193010F01E30C8F31B3241
:1010500051F01D3249F4689406C00E944108610FA6
:10106000711D811D911D119110531A30B0F33EF482
:1010700090958095709561957F4F8F4F9F4F1F91F1
:101080000895592F482F372F262F660F771F881F57
:10109000991F660F771F881F991F620F731F841F88
:1010A000951F660F771F881F991F08952F923F92F3
:1010B0004F925F926F927F928F929F92AF92BF9268
:1010C000CF92DF92EF92FF920F931F93CF93DF9314
:1010D000CDB7DEB7CA1BDB0B0FB6F894DEBF0FBE71
:1010E000CDBF09942A88398848885F846E847D84BE
:1010F0008C849B84AA84B984C884DF80EE80FD80C0
:101100000C811B81AA81B981CE0FD11D0FB6F89435
:10111000DEBF0FBECDBFED01089597FB072E16F47D
:10112000009407D077FD09D00E94A10807FC05D0E4
:101130003EF4909581959F4F0895709561957F4FEE
:101140000895AA1BBB1B51E107C0AA1FBB1FA6170E
:10115000B70710F0A61BB70B881F991F5A95A9F760
:1011600080959095BC01CD010895EE0FFF1F05906D
:10117000F491E02D09940F931F93CF93DF93823066
:10118000910510F482E090E0E091ED02F091EE0222
:1011900030E020E0B0E0A0E0309799F4211531056F
:1011A00009F44AC0281B390B24303105D8F58A814F
:1011B0009B816115710589F1FB0193838283FE0197
:1011C00011C0408151810281138148175907E0F015
:1011D0004817590799F4109761F012960C931297DB
:1011E00013961C933296CF01DF91CF911F910F91EF
:1011F00008950093ED021093EE02F4CF211531050E
:1012000051F04217530738F0A901DB019A01BD01E3
:10121000DF01F801C1CFEF01F9CF9093EE02809387
:10122000ED02CDCFFE01E20FF31F81939193225087
:10123000310939832883D7CF2091EB023091EC021A
:10124000232B41F420910A0130910B013093EC02E1
:101250002093EB02209108013091090121153105FD
:1012600041F42DB73EB740910C0150910D01241B64
:10127000350BE091EB02F091EC02E217F307A0F4DA
:101280002E1B3F0B2817390778F0AC014E5F5F4FDC
:101290002417350748F04E0F5F1F5093EC02409320
:1012A000EB02819391939FCFF0E0E0E09CCFCF934E
:1012B000DF930097E9F0FC01329713821282A0912C
:1012C000ED02B091EE02ED0130E020E01097A1F4C4
:1012D00020813181820F931F2091EB023091EC022B
:1012E0002817390709F061C0F093EC02E093EB0294
:1012F000DF91CF910895EA01CE17DF07E8F54A8123
:101300005B819E0141155105B1F7E901FB83EA8339
:1013100049915991C40FD51FEC17FD0761F48081E5
:1013200091810296840F951FE901998388838281B8
:1013300093819B838A83F0E0E0E012968D919C91EB
:1013400013970097B9F52D913C911197CD01029615
:10135000820F931F2091EB023091EC02281739077E
:1013600039F6309751F51092EE021092ED02B093DB
:10137000EC02A093EB02BCCFD383C28340815181A6
:10138000840F951FC817D90761F44E5F5F4F88819E
:101390009981480F591F518340838A819B81938390
:1013A00082832115310509F0B0CFF093EE02E0936E
:1013B000ED029ECFFD01DC01C0CF13821282D7CF98
:1013C000B0E0A0E0E6EEF9E00C9458088C0100973C
:1013D00051F4CB010E94BB088C01C801CDB7DEB728
:1013E000E0E10C947408FC01E60FF71F9C01225009
:1013F0003109E217F30708F49DC0D901CD91DC91C2
:101400001197C617D70798F0C530D10530F3CE0134
:1014100004978617970708F3C61BD70B2297C1932B
:10142000D1936D937C93CF010E945709D6CF5B0176
:10143000AC1ABD0A4C018C0E9D1EA091ED02B0911C
:10144000EE02512C412CF12CE12C109731F58091BA
:10145000EB029091EC028815990509F05CC04616E4
:10146000570608F058C08091080190910901009733
:1014700041F48DB79EB740910C0150910D01841B32
:10148000950BE817F90708F055C0F093EC02E093CC
:10149000EB02F90171836083A0CF8D919C9111972C
:1014A00012966C90129713967C901397A815B90515
:1014B00059F56C0142E0C40ED11CCA14DB0420F1C2
:1014C000AC014A195B09DA011296159780F0628225
:1014D000738251834083D9016D937C93E114F104AD
:1014E00071F0D7011396FC93EE93129776CF229664
:1014F0008C0F9D1FF90191838083F301EFCFF0934F
:10150000EE02E093ED0269CF4816590608F42C016B
:101510007D01D3019ACFCB010E94BB087C010097CB
:1015200049F0AE01B8010E949D0AC8010E94570906
:10153000870153CF10E000E050CFFB01DC0102C077
:1015400001900D9241505040D8F70895FB01DC0105
:1015500001900D920020E1F70895AEE0B0E0E3EBDA
:10156000FAE00C9464080D891E8986E08C831A8346
:1015700009838FEF9FE79E838D83AE01475E5F4FA8
:101580006F89788DCE0101960E94D00A2F8138850F
:10159000020F131FF80110822E96E4E00C948008CD
:1015A000ABE0B0E0E6EDFAE00C9456087C013B01BC
:1015B0008A01FC0117821682838181FFC8C1CE0196
:1015C00001965C01F7019381F30193FD859193FFEF
:1015D00081913F01882309F453C1853239F493FD89
:1015E000859193FF81913F01853229F4B70190E005
:1015F0000E94C00CE7CF912C212C312CFFE1F31578
:1016000038F08B3211F190F4803209F1833229F1F4
:1016100037FC3CC020ED280F2A3050F536FE20C0A4
:101620008AE0989E200D1124922E06C08D3291F0F2
:10163000803371F7689430F8F30193FD859193FF3F
:1016400081913F018111DACF21C0689431F868940B
:1016500032F8F2CF689433F8EFCF689434F8ECCFD7
:10166000EAE02E9E200D1124222E689435F8E4CF56
:101670008E3229F436FC04C1689436F8DDCF8C36FE
:1016800019F4689437F8D8CF8836B1F2982F9F7D37
:1016900095549330E0F08336A1F18337C1F183355F
:1016A00009F063C02801F2E04F0E511CF801C08020
:1016B000D180692D70E036FC02C06FEF7FEFC6016C
:1016C0000E94AA0C4C01689437F882010AC00C5F92
:1016D0001F4FFFE3F98388248394912C6501E894DC
:1016E00037F833FE2DC0522C8114910471F555202A
:1016F00009F468CFB70180E290E00E94C00C5A94D0
:10170000F6CFF801808189830E5F1F4FE4CF280157
:10171000F2E04F0E511CF801C080D180692D70E0BD
:1017200036FC02C06FEF7FEFC6010E94B50C4C0182
:101730008201D5CFB70180E290E00E94C00C2A94CC
:101740002814190409F0B0F7CECFF60137FC8591C3
:1017500037FE81916F01B70190E00E94C00C5110DB
:101760005A94F1E08F1A9108BFCF843619F0893668
:1017700009F077C0F80137FE6BC06081718182810A
:1017800093810C5F1F4FF32DFF763F2E97FF09C00B
:1017900090958095709561957F4F8F4F9F4F68947E
:1017A00037F82AE030E0A5010E94F00CC82ECA18D4
:1017B0008C2C432C36FE0CC0E89440F8C91440F43D
:1017C00034FE05C032FC03C0F32DFE7E4F2E892C63
:1017D00044FE95C0FE01EC0DF11D8081803309F0BF
:1017E00087C0242D297E422E842D8870582E43FCDC
:1017F00095C040FE8FC09C2C821418F42C0C922CA7
:10180000981844FE91C0B70180E390E00E94C00C9C
:1018100042FE09C088E790E041FE02C088E590E002
:10182000B7010E94C00CC91408F48AC0CA94D12C14
:101830009FEFC91AD90ACA0CDB1CF60182916F010D
:10184000B70190E00E94C00CAC14BD04B1F74FCFBB
:1018500060817181072E000C880B990B0E5F1F4F62
:1018600092CFD32CE894D4F82AE030E0853739F1D0
:10187000232D297FD22E8F3601F148F48835A9F027
:10188000F701868197812B96E2E10C9472088037EC
:1018900049F08837A9F7D4FE02C06894D2F820E155
:1018A00030E00DC06894D4F8F6CF34FE03C0822F28
:1018B0008660D82E20E132E002C028E030E0F80156
:1018C000D7FE0FC060817181828193810C5F1F4FB1
:1018D000A5010E94F00CC82ECA183D2CE89437F8D8
:1018E00067CF6081718190E080E00E5F1F4FF0CF85
:1018F00042FC02C0839478CF8394839475CF842D67
:10190000867809F471CFF6CFB70180E290E00E94AB
:10191000C00C83948214C0F3512C73CF522C5818EE
:10192000821408F46ECFF8CF842D867809F47BCF2B
:101930008BE241FE80E247FC8DE2B70190E071CF7F
:10194000B70180E390E00E94C00C9A946CCF8FEFB7
:101950009FEF99CFFC010590615070400110D8F7BE
:10196000809590958E0F9F1F0895FC0161507040E7
:1019700001900110D8F7809590958E0F9F1F0895C4
:101980000F931F93CF93DF93182F092FEB018B81B8
:1019900081FD09C01FEF0FEF812F902FDF91CF91B5
:1019A0001F910F91089582FF14C02E813F818C8179
:1019B0009D81281739073CF4E881F981CF01019610
:1019C0009983888310838E819F8101969F838E8364
:1019D000E3CFE885F985812F0995892BA1F3DACF2B
:1019E000FA01AA27283051F1203181F1E8946F9350
:1019F0006E7F6E5F7F4F8F4F9F4FAF4FB1E03ED0F6
:101A0000B4E03CD0670F781F891F9A1FA11D680F93
:101A1000791F8A1F911DA11D6A0F711D811D911DC6
:101A2000A11D20D009F468943F912AE0269F11243B
:101A30003019305D3193DEF6CF010895462F47709F
:101A4000405D4193B3E00FD0C9F7F6CF462F4F70FA
:101A5000405D4A3318F0495D31FD4052419302D058
:101A6000A9F7EACFB4E0A6959795879577956795FE
:101A7000BA95C9F700976105710508959B01AC01FE
:101A80000A2E06945795479537952795BA95C9F725
:101A9000620F731F841F951FA01D0895F894FFCF38
:101AA00001000100010001010000EF0280000200BE
:101AB0000300040005000600070008003F065B4F16
:101AC000666D7D077F6F09000A000B000C000000A7
:101AD00000002902490176017602E7018501D9015A
:101AE0000D0A0079656C6C6F77007265640067722F
:101AF00065656E007B22636F756E74657231223A84
:101B000025642C22636F756E74657232223A2564E7
:101B10002C226C6967687431223A222573222C22A8
:101B20006C6967687432223A222573227D00436F04
:101B3000756E74696E672073746F707065642E00C3
:101B40004E69676874206D6F64652061637469769F
:101B5000617465642E004E6F726D616C206D6F64F0
:101B600065206163746976617465642E00506561F7
:101B70006B20686F7572206D6F6465206163746996
:101B800076617465642E004C6967687420737769A8
:101B9000746368656420746F206D616E75616C207C
:101BA0006D6F64652E00496E76616C696420636FA9
:081BB0006D6D616E642E0000F2
:00000001FF
