:100000000C945D000C9485000C9485000C94850084
:100010000C9485000C9485000C9485000C9485004C
:100020000C9485000C9485000C9485000C9485003C
:100030000C9485000C9485000C9485000C9485002C
:100040000C94D1030C9485000C9441040C941B0473
:100050000C9485000C9485000C9485000C9485000C
:100060000C9485000C94850000000008000201003B
:100070000003040700000000000000000000000072
:10008000250028002B0000000000240027002A0083
:10009000040404040404040402020202020203032E
:1000A0000303030301020408102040800102040836
:1000B0001020010204081020730411241FBECFEF8A
:1000C000D8E0DEBFCDBF22E0A6E0B2E001C01D92C5
:1000D000AD3DB207E1F712E0A0E0B1E0E2E6F6E103
:1000E00002C005900D92A630B107D9F710E0CDE51A
:1000F000D0E004C02197FE010E943709CC35D1071A
:10010000C9F70E94DE040C942F0B0C94000090E0C1
:10011000FC01EC55FF4F249180579F4FFC018491C7
:10012000882399F090E0880F991FFC01EA57FF4F50
:10013000A591B491FC01E458FF4F859194918FB73C
:10014000F894EC91E22BEC938FBF089590E0FC01C2
:10015000E859FF4F2491FC01EC55FF4F3491FC010D
:10016000E057FF4FE491EE23C9F0222339F023300A
:1001700001F1A8F4213019F1223029F1F0E0EE0F5D
:10018000FF1FE458FF4FA591B4918FB7F894EC91FD
:10019000611126C030953E233C938FBF08952730D0
:1001A000A9F02830C9F0243049F7809180008F7D74
:1001B00003C0809180008F7780938000DFCF84B56B
:1001C0008F7784BDDBCF84B58F7DFBCF8091B0006E
:1001D0008F778093B000D2CF8091B0008F7DF9CF20
:1001E0003E2BDACF3FB7F894809110029091110224
:1001F000A0911202B091130226B5A89B05C02F3F13
:1002000019F00196A11DB11D3FBFBA2FA92F982F3C
:100210008827BC01CD01620F711D811D911D42E037
:10022000660F771F881F991F4A95D1F708958F92FF
:100230009F92AF92BF92CF92DF92EF92FF924B01CB
:100240005C010E94F2006B017C010E94F2006C19BB
:100250007D098E099F09683E734081059105A8F3C9
:1002600021E0821A9108A108B10888EEC80E83E047
:10027000D81EE11CF11C81149104A104B10429F7DA
:10028000FF90EF90DF90CF90BF90AF909F908F90B6
:100290000895AF92BF92CF92DF92EF92FF920F93A9
:1002A0001F93CF93DF936C017B018B01040F151F0C
:1002B000EB015E01AE18BF08C017D10759F0699174
:1002C000D601ED91FC910190F081E02DC6010995D8
:1002D000892B79F7C501DF91CF911F910F91FF9085
:1002E000EF90DF90CF90BF90AF900895FC01538DB9
:1002F000448D252F30E0842F90E0821B930B541700
:1003000010F0CF96089501970895FC01918D828D8C
:10031000981761F0A28DAE0FBF2FB11D5D968C9125
:10032000928D9F5F9F73928F90E008958FEF9FEF64
:1003300008952FB7F8948091140290911502A0911E
:100340001602B09117022FBF8093200290932102D2
:10035000A0932202B093230288E192E00E948501DB
:1003600097FF26C02FB7F894809114029091150240
:10037000A0911602B09117022FBF40912002509118
:1003800021026091220270912302841B950BA60B1F
:10039000B70B40911C0250911D0260911E0270919A
:1003A0001F0284179507A607B707B0F28FEF9FEFDC
:1003B0000895FC01918D828D981731F0828DE80FA0
:1003C000F11D858D90E008958FEF9FEF0895FC015A
:1003D000918D228D892F90E0805C9F4F821B910927
:1003E0008F739927089588E192E00E94E70121E048
:1003F000892B09F420E0822F089580E090E0892B7A
:1004000029F00E94F30181110C9400000895FC0171
:10041000A48DA80FB92FB11DA35ABF4F2C91848D65
:1004200090E001968F739927848FA689B7892C93C2
:10043000A089B1898C91837080648C93938D848D15
:10044000981306C00288F389E02D80818F7D808318
:100450000895EF92FF920F931F93CF93DF93EC01D8
:1004600081E0888F9B8D8C8D98131AC0E889F9895B
:10047000808185FF15C09FB7F894EE89FF8960835E
:10048000E889F98980818370806480839FBF81E0DF
:1004900090E0DF91CF911F910F91FF90EF90089521
:1004A000F62E0B8D10E00F5F1F4F0F731127E02EFC
:1004B0008C8D8E110CC00FB607FCFACFE889F98934
:1004C000808185FFF5CFCE010E940702F1CFEB8D31
:1004D000EC0FFD2FF11DE35AFF4FF0829FB7F89408
:1004E0000B8FEA89FB8980818062CFCFCF93DF9326
:1004F000EC01888D8823B9F0AA89BB89E889F9893C
:100500008C9185FD03C0808186FD0DC00FB607FC70
:10051000F7CF8C9185FFF2CF808185FFEDCFCE01A3
:100520000E940702E9CFDF91CF910895CF93DF9327
:1005300010920601CEE0D1E08881229660E00E9410
:10054000A60081E0CC31D807B9F761E089E00E94CC
:10055000A60061E08AE00E94A60061E08BE00E94B4
:10056000A60061E08CE0DF91CF910C94A600CF93C0
:10057000DF93EC0160E08C810E94A60060E088813E
:100580000E94A60060E08A81DF91CF910C94A600C2
:10059000CF93DF93EC0161E08C810E94A60060E0C4
:1005A00088810E94A60060E08A81DF91CF910C943F
:1005B000A600CF93DF93EC0161E08A810E94A60040
:1005C00060E088810E94A60060E08C81DF91CF917D
:1005D0000C94A600CF93DF93EC0161E088810E9428
:1005E000A60060E08A810E94A60060E08C81DF9115
:1005F000CF910C94A600CF93DF93EC018C810E94E5
:1006000087008A810E9487008881DF91CF910C94B6
:100610008700FC0101900020E9F73197AF01481BEA
:10062000590BBC0188E192E00C944901CF93DF9310
:100630000E940903EC0180E491E00E9409038C0F01
:100640009D1FDF91CF9108958F929F92AF92BF929D
:10065000CF92DF92EF92FF920F931F93CF93DF938E
:10066000CDB7DEB7A1970FB6F894DEBF0FBECDBFF2
:100670006C01990FEE08FF08F7FE47C06DE288E1B4
:1006800092E00E9429028C0122273327A9012C190C
:100690003D094E095F0919A2CE0181967C019AE0BD
:1006A000892E912CA12CB12CCA01B901A50194016C
:1006B0000E940109605DF70162937F0121153105F8
:1006C0004105510589F790E080E0309719F0CF019E
:1006D0000E940903080F191F80E491E00E9409039A
:1006E000800F911FA1960FB6F894DEBF0FBECDBF4D
:1006F000DF91CF911F910F91FF90EF90DF90CF90FE
:10070000BF90AF909F908F900895A701960119A276
:100710008E010F5D1F4F8AE0C82ED12CE12CF12CE9
:10072000CA01B901A70196010E940109605DF801A3
:1007300062938F01211531054105510589F73097E5
:1007400029F0CF010E9409038C01C6CF10E000E020
:10075000C3CF0F931F93CF93DF93EC0188819981CF
:10076000009759F02A813B812617370730F081E046
:10077000DF91CF911F910F9108958B016F5F7F4F94
:100780000E94620A009759F0998388831B830A8329
:100790002C813D81232B59F7FC011082E8CF80E0AA
:1007A000E7CF1F920F920FB60F9211242F933F9312
:1007B0008F939F93AF93BF938091140290911502F2
:1007C000A0911602B091170230910F0223E0230F7F
:1007D0002D3758F50196A11DB11D20930F0280936E
:1007E000140290931502A0931602B0931702809101
:1007F000100290911102A0911202B0911302019681
:10080000A11DB11D8093100290931102A0931202BA
:10081000B0931302BF91AF919F918F913F912F9110
:100820000F900FBE0F901F90189526E8230F029689
:10083000A11DB11DD2CF1F920F920FB60F9211249E
:100840002F933F934F935F936F937F938F939F93D8
:10085000AF93BF93EF93FF9388E192E00E9407026A
:10086000FF91EF91BF91AF919F918F917F916F9188
:100870005F914F913F912F910F900FBE0F901F905E
:1008800018951F920F920FB60F9211242F938F93EA
:100890009F93EF93FF93E0912802F09129028081CA
:1008A000E0912E02F0912F0282FD1BC09081809179
:1008B00031028F5F8F7320913202821741F0E091F5
:1008C0003102F0E0E85EFD4F958F80933102FF9199
:1008D000EF919F918F912F910F900FBE0F901F90CE
:1008E00018958081F4CFE8E1F2E01382128288EE5D
:1008F00093E0A0E0B0E084839583A683B78382E38E
:1009000091E09183808385EC90E09587848784ECE7
:1009100090E09787868780EC90E0918B808B81ECCC
:1009200090E0938B828B82EC90E0958B848B86ECAD
:1009300090E0978B868B118E128E138E148EE7ECBF
:10094000F2E08EE090E0918380838FE090E09383EB
:10095000828380E190E0958384834EE150E0578369
:10096000468383E090E0918780872FE130E03387F2
:1009700022875587448797878687318B208BE5EBC5
:10098000F2E021E130E03183208322E130E0338363
:10099000228323E130E0358324834BE150E0578309
:1009A00046839187808722E230E03387228755870C
:1009B000448797878687318B208B0895CF93DF9369
:1009C000CDB7DEB72E970FB6F894DEBF0FBECDBF02
:1009D000789484B5826084BD84B5816084BD85B51A
:1009E000826085BD85B5816085BD80916E00816026
:1009F00080936E00109281008091810082608093CC
:100A000081008091810081608093810080918000CD
:100A10008160809380008091B10084608093B100F8
:100A20008091B00081608093B00080917A008460F2
:100A300080937A0080917A00826080937A0080911E
:100A40007A00816080937A0080917A008068809338
:100A50007A001092C100E0912802F091290282E010
:100A60008083E0912402F09125021082E091260219
:100A7000F09127028FEC808310923002E0912C02DB
:100A8000F0912D0286E08083E0912A02F0912B0202
:100A9000808180618083E0912A02F0912B02808125
:100AA00088608083E0912A02F0912B028081806827
:100AB0008083E0912A02F0912B0280818F7D8083D8
:100AC00087EC92E00E94FB0285EB92E00E94FB0221
:100AD0000EE011E0D801FC900E5F1F4F8F2D0E9499
:100AE000870060E08F2D0E94A600B1E00C311B074B
:100AF00089F706E211E0F801F0800E5F1F4F8F2D9D
:100B00000E94870061E08F2D0E94A600F1E00E3266
:100B10001F0789F72FB7F89480911402909115025E
:100B2000A0911602B09117022FBF80930B029093F1
:100B30000C02A0930D02B0930E023E0129E0620E5A
:100B4000711C01E010E032E0C32ED12C8FB7F89475
:100B50008090140290901502A0901602B090170297
:100B60008FBF80910701882309F453C080910B0245
:100B700090910C02A0910D02B0910E02A50194017A
:100B8000281B390B4A0B5B0BDA01C901883E9340E5
:100B9000A105B105F0F18091040190910501823029
:100BA000910509F07BC083E491E00E9409038091E4
:100BB000090290910A020E942403809102019091FF
:100BC00003018230910509F071C080E691E00E9436
:100BD000090380910702909108020E9424038092E9
:100BE0000B0290920C02A0920D02B0920E02809124
:100BF000090290910A02019790930A0280930902D8
:100C000080910702909108020197909308028093C7
:100C1000070288E192E00E94E701181619060CF01D
:100C20009DC01A8219821C821B821E821D8270E066
:100C300060E0CE0101960E94A90329813A818111C9
:100C40003DC02115310519F0C9010E94D9091A8248
:100C500019821E821D821C821B820E94990197FDAF
:100C600035C08A30910591F189871A86ED80FE8022
:100C70004FEFE41AF40AB701CE0101960E94A903CE
:100C8000882359F329813A818D819E81B301820F96
:100C9000931F0E94280BFE82ED82DFCF039719F489
:100CA0008DE491E082CF88E591E07FCF039719F43E
:100CB00088E691E08CCF82E791E089CF1E821D8289
:100CC00062E471E0C9010E94280BC7CF89819A8133
:100CD000009789F00E947A086330710509F423C1F6
:100CE00074F46130710561F16230710509F411C16C
:100CF00085EF91E02BC060E070E0CB01EDCF643078
:100D0000710509F462C16530710591F71092070110
:100D10000E9496028091000190910101019709F0D3
:100D200090C187EC92E00E94C80285EB92E00E949D
:100D3000EA02D0920101C092000186ED91E006C066
:100D400010920701109206028DE791E00E941603AF
:100D500089819A81009711F00E94D9098091060239
:100D60008823E1F087EC92E00E94D90264EF71E001
:100D700080E090E00E94170187EC92E00E94B702A9
:100D800085EB92E00E94D90264EF71E080E090E090
:100D90000E94170185EB92E00E94B7024090090281
:100DA00050900A02C2016AE070E00E94ED087A8366
:100DB00069839C838B832090070230900802C101D5
:100DC0006AE070E00E94ED087E836D8398878F83D0
:100DD00080910601882309F45BC0DE011196BC876F
:100DE000AB8726E2A22E21E0B22E61E089E00E94CC
:100DF000A60061E08AE00E94A60061E08BE00E940C
:100E0000A60061E08CE00E94A600AB85BC85ED9158
:100E1000FD91BC87AB87E45EFE4F80819EE0892E0A
:100E200091E0992EF12CE12CE82FF0E0FE87ED8780
:100E3000D4018C91B2E08B0E911C6D857E850E2CB9
:100E400002C0759567950A94E2F761700E94A6004A
:100E5000EFEFEE1AFE0AF7E0EF16F10449F7D501BD
:100E6000FC90B2E0AB0EB11C60E08F2D0E94A6009A
:100E700065E070E080E090E00E94170161E08F2D56
:100E80000E94A600EB85FC85E615F70509F0ADCFBD
:100E900057FE18C0809104019091050181309105A1
:100EA00009F0DCC087EC92E00E94EA02D0920501D2
:100EB000C09204018091CD029091CE0290930A02DB
:100EC0008093090237FE18C08091020190910301BE
:100ED0008130910509F0E8C085EB92E00E94C802DC
:100EE000D0920301C09202018091BF029091C00292
:100EF000909308028093070280E090E0892B09F428
:100F000025CE0E94F301882309F420CE0E94000020
:100F10001DCE0E9496021092070151E050930602E6
:100F20008FE891E013CF81E0809307018093060161
:100F3000109206021093050100930401109303011F
:100F4000009302018091D3029091D4029093CE023B
:100F50008093CD028091D5029091D6029093D002D9
:100F60008093CF028091D7029091D8029093D202C1
:100F70008093D1028091C1029091C2029093BC02F1
:100F80008093BB028091C3029091C4029093BE02F1
:100F90008093BD028091C5029091C6029093C002D9
:100FA0008093BF0287EC92E00E94EA0285EB92E018
:100FB0000E94C80210920A021092090210920802BE
:100FC0001092070285EA91E0C1CE8091CD02909106
:100FD000CE024E969093CE028093CD028091D102A4
:100FE0009091D2024E969093D2028093D10280913A
:100FF000BB029091BC024E969093BC028093BB02C0
:101000008091BF029091C0024E969093C00280934F
:10101000BF02109305010093040110930301009394
:10102000020110920A021092090210920802109214
:10103000070291E090930701109206028CEB91E079
:1010400085CE87EC92E00E94EA0285EB92E00E9456
:10105000C80210930101009300016FCE8230910508
:1010600079F487EC92E00E94D90223E030E03093DB
:101070000501209304018091CF029091D0021ECFF0
:10108000039709F01FCF87EC92E00E94C80280917D
:10109000D1029091D20290930A0280930902109398
:1010A0000501009304010ECF8230910579F485EBA0
:1010B00092E00E94EA0243E050E050930301409323
:1010C00002018091BB029091BC0212CF039709F0FC
:1010D00013CF85EB92E00E94D9028091BD029091DE
:1010E000BE029093080280930702109303010093BD
:1010F000020102CF1F93FC0199278827BC01E894C5
:1011000011911032E9F3193010F01E30C8F31B3280
:1011100051F01D3249F4689406C00E94A108610F85
:10112000711D811D911D119110531A30B0F33EF4C1
:1011300090958095709561957F4F8F4F9F4F1F9130
:101140000895592F482F372F262F660F771F881F96
:10115000991F660F771F881F991F620F731F841FC7
:10116000951F660F771F881F991F08952F923F9232
:101170004F925F926F927F928F929F92AF92BF92A7
:10118000CF92DF92EF92FF920F931F93CF93DF9353
:10119000CDB7DEB7CA1BDB0B0FB6F894DEBF0FBEB0
:1011A000CDBF09942A88398848885F846E847D84FD
:1011B0008C849B84AA84B984C884DF80EE80FD80FF
:1011C0000C811B81AA81B981CE0FD11D0FB6F89475
:1011D000DEBF0FBECDBFED01089597FB072E16F4BD
:1011E000009407D077FD09D00E94230907FC05D0A1
:1011F0003EF4909581959F4F0895709561957F4F2E
:101200000895A1E21A2EAA1BBB1BFD010DC0AA1F47
:10121000BB1FEE1FFF1FA217B307E407F50720F05F
:10122000A21BB30BE40BF50B661F771F881F991FDA
:101230001A9469F760957095809590959B01AC0123
:10124000BD01CF010895AA1BBB1B51E107C0AA1F16
:10125000BB1FA617B70710F0A61BB70B881F991F57
:101260005A95A9F780959095BC01CD010895EE0F90
:10127000FF1F0590F491E02D09940F931F93CF93D6
:10128000DF938230910510F482E090E0E091DB0280
:10129000F091DC0230E020E0B0E0A0E0309799F47B
:1012A0002115310509F44AC0281B390B24303105BA
:1012B000D8F58A819B816115710589F1FB019383C2
:1012C0008283FE0111C04081518102811381481740
:1012D0005907E0F04817590799F4109761F01296F2
:1012E0000C93129713961C933296CF01DF91CF91F6
:1012F0001F910F9108950093DB021093DC02F4CF4D
:101300002115310551F04217530738F0A901DB01CF
:101310009A01BD01DF01F801C1CFEF01F9CF909330
:10132000DC028093DB02CDCFFE01E20FF31F81933D
:1013300091932250310939832883D7CF2091D90244
:101340003091DA02232B41F420910A0130910B01F4
:101350003093DA022093D9022091080130910901DB
:101360002115310541F42DB73EB740910C01509144
:101370000D01241B350BE091D902F091DA02E2173E
:10138000F307A0F42E1B3F0B2817390778F0AC01A8
:101390004E5F5F4F2417350748F04E0F5F1F509385
:1013A000DA024093D902819391939FCFF0E0E0E07D
:1013B0009CCFCF93DF930097E9F0FC013297138223
:1013C0001282A091DB02B091DC02ED0130E020E05E
:1013D0001097A1F420813181820F931F2091D902AF
:1013E0003091DA022817390709F061C0F093DA0268
:1013F000E093D902DF91CF910895EA01CE17DF077C
:10140000E8F54A815B819E0141155105B1F7E9017B
:10141000FB83EA8349915991C40FD51FEC17FD074F
:1014200061F4808191810296840F951FE90199836F
:101430008883828193819B838A83F0E0E0E0129627
:101440008D919C9113970097B9F52D913C9111972F
:10145000CD010296820F931F2091D9023091DA02BA
:101460002817390739F6309751F51092DC0210929F
:10147000DB02B093DA02A093D902BCCFD383C2833C
:1014800040815181840F951FC817D90761F44E5FC1
:101490005F4F88819981480F591F518340838A810A
:1014A0009B81938382832115310509F0B0CFF0939E
:1014B000DC02E093DB029ECFFD01DC01C0CF138292
:1014C0001282D7CFB0E0A0E0E8E6FAE00C94B808CA
:1014D0008C01009751F4CB010E943D098C01C80199
:1014E000CDB7DEB7E0E10C94D408FC01E60FF71F9E
:1014F0009C0122503109E217F30708F49DC0D9017D
:10150000CD91DC911197C617D70798F0C530D1055A
:1015100030F3CE0104978617970708F3C61BD70B45
:101520002297C193D1936D937C93CF010E94D909E7
:10153000D6CF5B01AC1ABD0A4C018C0E9D1EA0914A
:10154000DB02B091DC02512C412CF12CE12C1097E4
:1015500031F58091D9029091DA028815990509F048
:101560005CC04616570608F058C08091080190915B
:101570000901009741F48DB79EB740910C0150913D
:101580000D01841B950BE817F90708F055C0F0937F
:10159000DA02E093D902F90171836083A0CF8D91C3
:1015A0009C91119712966C90129713967C901397BA
:1015B000A815B90559F56C0142E0C40ED11CCA1436
:1015C000DB0420F1AC014A195B09DA011296159788
:1015D00080F06282738251834083D9016D937C9342
:1015E000E114F10471F0D7011396FC93EE93129776
:1015F00076CF22968C0F9D1FF90191838083F30192
:10160000EFCFF093DC02E093DB0269CF4816590676
:1016100008F42C017D01D3019ACFCB010E943D0932
:101620007C01009749F0AE01B8010E941F0BC80170
:101630000E94D909870153CF10E000E050CFFB0191
:10164000DC0102C001900D9241505040D8F708953E
:10165000FB01DC0101900D920020E1F70895F89460
:02166000FFCFBA
:1016620001000100010001010000DD028000020012
:101672000300040005000600070008003F065B4F58
:10168200666D7D077F6F09000A000B000C000000E9
:1016920000002902490176017602E7018501D9019C
:1016A2000D0A00477265656E20313A200059656C5B
:1016B2006C6F7720313A200052656420313A200065
:1016C20052656420323A2000477265656E20323AD4
:1016D200200059656C6C6F7720323A2000436F7599
:1016E2006E74696E672073746F707065642E004E3D
:1016F20069676874206D6F646520616374697661DF
:101702007465642E004E6F726D616C206D6F64653E
:10171200206163746976617465642E005065616B43
:1017220020686F7572206D6F6465206163746976DD
:10173200617465642E004C696768742073776974FC
:101742006368656420746F206D616E75616C206DD5
:101752006F64652E00496E76616C696420636F6DFB
:061762006D616E642E00B3
:00000001FF
